:02000004000AF0
:20E000000040022067F90A0093F80A009FF20A0093F70A0093F70A0093F70A000000000048
:20E0200000000000000000000000000093F70A0093F70A000000000093F70A0093F70A0090
:20E0400093F70A0093F70A0093F70A0093F70A0093F70A0093F70A0093F70A0093F70A0020
:20E0600093F70A0093F70A0093F70A0093F70A0093F70A0093F70A0093F70A0093F70A0000
:20E0800093F70A0093F70A0093F70A0093F70A0093F70A0093F70A0093F70A0093F70A00E0
:20E0A00093F70A0093F70A0093F70A0093F70A0093F70A0093F70A0093F70A0093F70A00C0
:18E0C00093F70A0093F70A0093F70A0093F70A0093F70A0093F70A00D0
:20E0D8002DE9F04F9DB0BE484FF47051006801EA8020BC49086001F031F8002800F0B480B6
:20E0F80005AC10AD4FF0FC090DF113084FF0000A5FFA8AF008212246000301F0F9F8204645
:20E1180001F05CFB60B9204601F048FB002840F099800AF1010A5FFA8AF05828E8D391E0F6
:20E138004FFA8AF7002F00F18D803E0334212A46304601F0DDF89DF85000FE281DD19DF800
:20E158004C00032819D19DF84D00012815D19DF85100FC2811D01699DDF86CB001EB0B00D3
:20E17800B0F5801F09D85846012200F02DF99DF85010FE2908BF002802D00AF1010AB7E70A
:20E1980058462C2122468DF8139001F0B1F80B99584601F0E7F903460130EED00C98984289
:20E1B800EBD30B99CA189042E7D858461A46029300F0F4FE039046F010000121424600F08A
:20E1D8007BFF03980028D8D17E480B9B00220168002000900298C0F3473000F00FFA07993D
:20E1F800884226D1029E01214246700B0390FE208DF813007803113000F05EFF0398112162
:20E2180042460123C0B201F08FF916993046002200F0DAF89DF82610032901D8022901D179
:20E2380007290AD148B901F025FA0C9801F094FB03E00BF1110001F07FFB0BF1100001F02E
:20E258007BFB9AE701F016FA4FF0000810AC01254FF0FE0A0DF1140900264FF0000B30463D
:20E278002146082201F077FA204601F097FA88B1304621462C2201F06EFA9DF852000728D8
:20E2980008D805FA00F010F08A0F03D0169B581C022807D20BF1010B06F50056BBF1580F97
:20E2B800DDD13FE0B3F5302FF4D81798B042F1D3F1188842EED89DF84C000328EAD19DF84C
:20E2D8004D000128E6D19DF85100FE281FD0FF28E0D13C4800228DF814A0CDF80080016899
:20E2F8005FFA8BF000F08AF907461298494687421CBFFC208DF8140006F11100012201F0C4
:20E31800F5F812988742C5D11699304601E030461946002200F058F80028BBD1179801F05E
:20E338001BFBB7E700F00AFF002842D010AA0020342100F0DDFF9DF85100FE2839D116991E
:20E358001B9D4819B0F5801F33D8284601F00AF9044601302DD01798A0422AD316990A1903
:20E37800904226D82846224600F018FEF8B91548169B0022016800200090C4F3473000F0C1
:20E398003DF91299884212D1600BFE2101238DF81410C0B205AA112101F0C6F81699204669
:20E3B800002200F011F810B9179801F0D5FA01F061F901F04DFA00201DB0BDE8F08F00BF9F
:20E3D80030240340282900202DE9F04FC1B0002900F0F98093468146B1F5801F03D9BBF158
:20E3F800000F40F0F080FF20BBF1000F37D08DF84300002001EB090501F07DFA119011ACCD
:20E4180082465FEAC87026D0304601213A4600F06FFF9DF8430003280FD006F10800A84264
:20E4380019D8301D0421224600F062FF11984FF001080644AE42E4D90DE04FF00008153641
:20E458000421CDF81080304604AA00F051FF049901200029D4D15FEACA703BD1B3E0B1F572
:20E47800302F00F2B1808DF84300002001EB090401F041FA0DF1440A119005465FEAC8703C
:20E4980026D030463946012201F065F99DF8430003280FD006F10800A04219D8301D51466F
:20E4B800042201F058F911984FF001080644A642E4D90DE04FF0000815360422CDF8108002
:20E4D800304604A901F047F9049901200029D4D1E80778D0BBF1000F3FD004AD48463021B3
:20E4F8002A4600F005FF9DF83F00FC286BD0414C4FF4A051204601F0D1F93D4E48468121D0
:20E51800324600F0F5FE06F1390001F0B7F9074600285ED1354948464FF48052012300F0DE
:20E53800D5FB002854D007460078002850D00DF14408C021404601F0B1F92F4906F161007E
:20E5580006F141033A468DE8110101F0FBF907460020CFB3A52F37D03BE004AC4846302207
:20E57800214601F0F8F89DF83F00FC282BD01F4948464FF48052002300F0A8FBC8B10546C3
:20E598000078B0B11A4E49468122304601F06BF911A8194906F141032A46029015480190DF
:20E5B80006F16100009001F0CDF9A52801D100200AE0FC2004F12F0101228DF83F0009F1D9
:20E5D8002F0000F093FFFF2040B241B0BDE8F08FFF27FC2005F12F0201218DF83F0009F103
:20E5F8002F0000F069FD3846EEE700BF34170020342800200003002054FF0A002DE9F04FB0
:20E618008BB08246581C022803D200200BB0BDE8F08F14981E460C46B3F5801F01D90028C2
:20E63800F3D1B6F5302F01D90028EED0069238B14E4A504600214FF4807301F065F806E0FA
:20E658004A480AFB04F14FF4807201F00CF9701E0123464F4FF0FF39B0FBF4F101FB14008D
:20E67800013082B2C5B2100A002D18BF03EB1220019008BF4FF480750595029401EB0A00B2
:20E698005146C0B208900898CEB286426AD8019A4FF0FF3018BF220A50FA82F0099207919C
:20E6B8000A9006FB04F0002400F580700490481C039009985FFA84FBC0B283454FD20898AB
:20E6D800B046554686424FF48076059808BF06460A9858454FF4807018BF0646079880EA42
:20E6F8000A004FF0000A20430006069808BF00F10C0A1FFA8AF086420AD9385C5FFA89F135
:20E71800484001F03BF880EA19290AF1010AF0E7149858B10A98584513D1039800213A4698
:20E738004FF48073C0B200F0EFFF07E004984FF4807200EB0B21384601F095F8AA464646F4
:20E758000BE04FF480703A464FF48073464600EB0B21404600F0D8FFAA460134A9E7DDE962
:20E77800024190E76FEA090050E700BF342700202DE9FC47DDF83090304F0C460546104694
:20E798001E464946B84709F1200A28465146B84709F1400520462946B84709F1600830465C
:20E7B8004146B84709F180060A983146B847244824490B9C304F016023482549046023481B
:20E7D8000160244824490160244825490160254825490160254826490160264803210170CF
:20E7F80008205146C4F8DC04C4F8B804C4F89404C4F87004C4F84C0404F58A60B84704F2C6
:20E8180074402946B84704F593604946B84704F2BC404146B84704F59C603146B84704F26B
:20E83800DC4004F58E6104F2944204F59763009004F24C4000F022F8BDE8FC87BDF80A00FA
:20E8580038010020D4570210340100203C010020F8570210400100201C58021044010020AB
:20E87800405802102C01002064580210300100208858021048010020E1F80A00DFF800F065
:20E8980005C800102DE9F04740F21009C4F209091546D9F800200C469107804642BFFD2009
:20E8B800C4F20000C9F80C0044F20C0042F22C0AC4F209000021C4F2090A40F2B817016006
:20E8D800C1F20007DAF80000386842F20C0681692720C4F208068847306B4FF6FF71CFF6D5
:20E8F800FE6108403063B06F20F48070B0673868016B4FF4806088473868016B4FF481605E
:20E9180088473868016B4FF4C060884742F22800C6F2080001210160C6F880413160D9F852
:20E938000000800705D4681C08BF4FF04045C9F80C50DAF8000000BFF0698007FCD500BF32
:20E95800072000F04DFD0228FAD1B8F1000F16D144F20004C4F20304386A816820468847F3
:20E978000428F9D0012804D1386A0321426820469047D6F8180220F00300C6F8180238686C
:20E99800806BBDE8F047004770B541F21C30C5F20000066840F2B014C1F2000400F0C8FE25
:20E9B80040F28440C4F2602000250560206C806C804740F28010C4F22830006850B140F2DF
:20E9D8008051C4F22031B6F1FF30096818BF304600F01CF942F28C11C4F208010D6042F27D
:20E9F8004801C4F203010A6840F23913282063F31B42C4F209000A60016801F44051B1F553
:20EA1800805F09D101684FF6EF72CFF6FC42114001F50032026001600025C4F2243501267C
:20EA3800EE612068016A1420884742F20000C4F20900016841F4E021016044F6B4702E609A
:20EA5800C5F20000006800F44000B0F5000F06D1206C416C43F2BD70C0F2860088470C20F2
:20EA7800C4F2682001680029FCD170BD2DE9F84F05462E480C468346006841692720884753
:20EA98002B4E0027DFF8ACA03189B77077608AF80170081940280FD329B306F11008C1F1E8
:20EAB800400708EB010029463A4600F061FF00204FF0400930811AE07018294622461030D2
:20EAD80000F056FF3089CAF80C702044308100F027FF19490120707008604A6842F0010205
:20EAF8004A60C8601CE024F03F07A846B946E01BE919CAE9021000F013FFF0680C214B460F
:20EB1800002808BF0821DBF854000822445806F150014046A04701207070F0684844F060EE
:20EB380000F004FFBDE8F84F00F008B8B0010010B828002020170020804702402DE9FE4FAA
:20EB58002D48304D2D4EDFF8C0A04FF0000B80462B488146841C05F15000029005F1100031
:20EB78000190D8F80000416948468847B768346000F0D6FEA878B0BBB7F1FF3F1ADDDAF864
:20EB98000C7037B3402F19D3D8F8001027F03F07DAF8080008223B46D1F80CC00299E04783
:20EBB800DAE90201C91B3844CAE90201E8683844E86018E04FF0FF3068600AE0DAF808104B
:20EBD80001983A4600F0D4FE2889CAF80CB03844288185F801B09AF80100012804BFA5F8A4
:20EBF80008B0C5F80CB000F0A1FE68780028B8D16868BDE8FE8F00BF0402001088470240C4
:20EC180001000080B828002020170020F0B581B044F6AC71C5F200014A6846F209260546BB
:20EC38009007C4F2080605D40868F02242EA104086F84D004AF20440C4F20C004FF001221B
:20EC580002604AF2000040F2F017C4F20C00C1F2000700888C68386801682046884704F09B
:20EC78004070B0F1807F03D1307840F0020030703868214642682846904741F20C40C5F2B2
:20EC9800000000684BF20E02C0F30531C4F20C021170C1054FF0130158BF232140237354DB
:20ECB800382101EA901000F56050A2F85C003868816820468847022000F06EFB40F294407E
:20ECD800C4F260200121016001B0F0BD2DE9F84398461446894607462BB1384621464A460F
:20ECF80000F006FB04E048463946224600F0BBFDD9F81800002840D000F002F9214D09F196
:20ED18000C000421A84709F112002F21A84709F18100A4F18101A847D9F818002744254630
:20ED3800061BC6B1B8F1000F05D0384629464A4600F0DEFA04E0AAB24846394600F093FD84
:20ED580048462946FFF792FE761B27443546A64288BF2546E5E70C4C204600F017F800F08E
:20ED780069F900210020202903D0625C01311043F9E7002808BF044600E000242046BDE851
:20ED9800F88300BF85EA0A00001700202DE9FF412A4E044656F8540C416927208847284F74
:20EDB80000200125B87078602648457000F0B8FD7D70F86868B1398999B13268431807F1CE
:20EDD800100015680822CDE9001207F1500221462CE030683A8921460823456807F110003D
:20EDF80024E0C00007F110080025402102904046039500F053FD8020387407F1480002A97A
:20EE18002A1D07D04A19013DD378D27900F8012BC370F5E707F150012046202200F0A8FDCC
:20EE38003068214608224023C5684046A84700F07DFDBDE8FF41FFF781BE00BF0402001033
:20EE5800B8280020201700202DE9FF41274E054688463068416906208847062000F0E2FA36
:20EE78000128FAD13068C1694FF4A0608847204C204F0120206038688007FCD53068C1697C
:20EE98004FF4807088470120206038688007FCD5194F1A4900220023386920F00F00386156
:20EEB8000320F861F06804680820CDE900504FF08040A04756F8040C082109224FF0FF33C3
:20EED800446C4FF08040CDF80080A047386840F00200386003ACF068214602694FF08040FD
:20EEF80090470028F7D1BDE8FF8100BFB8010010282008602820084004000040006CDC02B8
:20EF1800F8B500F00DFD1F4D287810B14FF0FF3433E0002701246F702C70AF7000F006FD07
:20EF3800EF602F8100F0FCFC174D04202C7000F079FA164E012809D02F70306841690420E0
:20EF58008847042000F06EFA0128FAD13068C16900F007FD3068416A00F003FD3068C16AAE
:20EF780000F0FFFC0A4804600A4801688907FCD50948002401686960046000F0D7FC204688
:20EF9800F8BD00BFB828002020170020B8010010282008602820084034EF00E02DE9F04339
:20EFB800C1B0814690070DD188180D461446411E1F480068B1FBF0F1B2FBF0F68E4298BFCA
:20EFD800582904D9FF2040B241B0BDE8F083B5FBF0F101FB1050002818BF0131C8B250FABF
:20EFF80086F7F0B2874205D900F02AFB0136FF28F7D1E7E74FF480760DF10408B5B1B0B21F
:20F018004246854238BF2E46B7B24846394600F06FF90028D6D0204641463A4600F066FAC5
:20F038000028CFD1ED1B3C44B944E7E70020CAE72829002010B500F073FC194C607808B141
:20F0580000F012FA002018492070164C6068086000F06CFC00F064FC2078144C40B92068D8
:20F07800816904208847042000F0DCF90228FAD12068016A00F075FC2068816A00F071FC99
:20F098002068016B00F06DFC094801210160094801688907FCD5BDE8104000F047BC00BF75
:20F0B800B82800202017002034EF00E0B801001028200860282008402DE9F84F06461E48C6
:20F0D80014460D464FF002094FF0000AE84683467DB300F0D9F848BB00F000FB30BB300ADD
:20F0F8008DF800908DF803608DF80200300C8DF80100F0B28BF800A0C0F580774046BD42BC
:20F1180038BF2F46042100F081FA60B92046394600F07CFA38B90121ED1B3E4458463C44BC
:20F138008BF80010D4E701208BF800000020BDE8F88F0120BDE8F88F14200240BCB51848E5
:20F158000A21FFF781FE17480068C16B14208847154C0125AB20012125708DF8070000204C
:20F1780020700DF1070000F051FA257088B94FF4C870ADF80400BDF80400BDF8040028B162
:20F19800BDF804000138ADF80400F6E700F07CF818B100F06FFA0020BCBD00F007F8BCBD58
:20F1B80000093D00B401001014200240BCB51648164D042101900020287001A800F026FA5D
:20F1D80010B10120287007E0114C0221204600F06DF90121297008B10020BCBD0D4B22787B
:20F1F800647803F12001186840B11D79AA4202D15D79AC4201D00833F5E71946064A0028BD
:20F21800116018BF0120BCBD90FFFF0014200240B52800208CF90A0030170020F0B540F622
:20F23800FF7C10F8013B0024082CFAD00646DF0716F8015B0AD1467806F00F070337122F19
:20F258000AD187783A0609D403300DE001F8015B304601345B08E7E7023006E0C27807F005
:20F278007F07043047EAC2171237320942EA0515654508BFF0BDED43002FEAD04A5D013FCA
:20F298000A700131F8E7FEE72DE9F843174E05204FF000088DF8030086F8008000F0BCFA98
:20F2B8004FF001090DF103040DF10205022786F800902046012186F8008000F0A7F9284628
:20F2D800012100F0F3F886F8009000284FF001009DF8021008BF27EA41000028E9D00228D8
:20F2F8000CBF00206FF00100BDE8F883142002407CB515460C460646FFF7C6FF01460020C9
:20F3180001B17CBD03218DF807608DF80410310A8DF80610310C0B4E8DF805100421307076
:20F3380001A800F073F918B10120307000207CBD2846214600F0BAF8B0FA80F001214009D1
:20F3580031707CBD1420024070B5104C2068016A4FF4807088470E4E0E4D012030602868D7
:20F378008007FCD52068016A4FF4A06088470120306028688007FCD5206881690620884718
:20F39800062000F04FF80228FAD170BDB8010010282008602820084080B546F200014FF61A
:20F3B800C41E4FF6C81CC4F20C01C0F20A0EC0F20A0C00BF0B6800BF4A689342FCD18342CB
:20F3D80008BF80BD1EF803201EF800309A424FF0FF3338BF01231A441CF802200A60E9E75C
:20F3F80042F24011C4F208010A68496DC30701D1002106E002F0010301F00401C91818BF42
:20F418000121830744BF02F0020341EA5301400744BF02F0040041EA90010220002918BF91
:20F438000120704742F24011C4F208010A68496DC30701D1012106E002F0010301F00401E0
:20F45800C91818BF0121830744BF02F0020301EA5301400744BF02F0040001EA9001022019
:20F47800002918BF0120704770B500F059FA0C4D687878B10B48012606600B480068016ACC
:20F498002720884700246FF00200AE70EC602C81686001E04FF0FF3400F048FA204670BDC2
:20F4B800B828002040470240B0010010F8B50E4F0C4605466E468CB13868002182684FF028
:20F4D8008040904760B138683146C2684FF0804090470098013C05F8010BECE70020F8BDCF
:20F4F8004FF0FF30F8BD00BFC4010010F8B514460D46064600F052F80746284631462246C3
:20F5180000F06CF904462FB1054801210068426804489047002C18BFFF242046F8BD00BFB0
:20F53800D801001000400340F8B51C46154601EB403600F033F8074628463146224600F0D6
:20F558004DF904462FB1054801210068426804489047002C18BFFF242046F8BDD801001055
:20F5780000400340FEB50C4605462C276E4678190C213246FFF7BCFE58B19DF800000128EC
:20F598000AD001994FF0FF3011B10F44A742EED3FEBD4FF0FF30FEBD0298FEBD70B50B4EFB
:20F5B8000B4C3068816820468847054600060AD03068002142682046904730688168204674
:20F5D80088470028F9D1E8B270BD00BFD80100100040034070B50948094C84420BD0094D9E
:20F5F800094EB54207D0F5E8020110F8012B54F822209047F5E700BF00BF70BDD8F90A00F3
:20F61800CCF90A00ECF90A00FCF90A00F8B50B4F0C4605466E4674B1386815F8011B426825
:20F638004FF08040904738683146C2684FF080409047013CEFE70020F8BD00BFC401001049
:20F65800B0B50446FFF7AAFF0546600300F0D5F804462DB10548012100684268044890470D
:20F67800E0B2002818BFFF20B0BD00BFD8010010004003407CB5B9200A4D0024012101265C
:20F698008DF807000DF107002C70FFF7BFFF2E70092C04D80134FFF789FD0028F8D1FFF72A
:20F6B80053FE7CBD142002400A4880F308880A48016841F47001016000BF00BF00F054F960
:20F6D80008B1FFF787FF0020FEF7FAFC012000F04DF900BF0040022088ED00E0BCB506206E
:20F6F800084C012101258DF80700002020700DF10700FFF78BFF2570002818BF6FF00200A0
:20F71800BCBD00BF1420024070B51C46154601EB403600F0E9F8210405D016F8011B013CAD
:20F7380005F8011BF7E708B900F000F9002070BD41F21830C5F2000000684FF20001C0F631
:20F75800FF71084047F20001C0F6B731884208BF704700BFFEE770B514460D46064600F007
:20F77800C3F82CB116F8011B013C05F8011BF8E708B900F0DBF8002070BDFEE710B5064AAF
:20F7980008210B0608BF10BD82EA5003C40708BF430801391846F4E72083B8EDB0B5064978
:20F7B80007231A46002B04D48C5C855C531EA542F7D0D00FB0BD00BFBCF90A00B0B506493E
:20F7D80007231A46002B04D48C5C855C531EA542F7D0D00FB0BD00BFB4F90A0080B540F273
:20F7F800A813C1F200031B689B69984740F28441C4F2602100220A6080BD80B540F2A81103
:20F81800C1F2000109684969884740F28441C4F2602100220A6080BDBCB5054D01AC286833
:20F83800214602694FF0804090470028F7D1BCBDC401001010B54AB110F8013B11F8014B71
:20F85800013AA3421CBF012010BDF4E7002010BD80B500F065F8002000214FF0FF32BDE807
:20F878008040FFF70FB810B530B1431E01391AB18C5C9C54013AFAE710BDFEE780B50349C0
:20F8980008220431FFF7D6FFC0B280BD54FF0A000B4611461A4600F035B800BF0A46002105
:20F8B80000F030B81F22531C08BF7047835C013A01F8013BF7E710B500239A4208BF10BDA5
:20F8D800CC5CC4540133F8E70022202A08BF70478B5C83540132F8E780B50A46D0F80310A3
:20F8F8001046FFF7DBFF80BD80B500F019F8002818BF012080BD09F12C064FF001080DF188
:20F918004307704700239A4208BF7047C1540133F9E70B46D0F80320C11D184600F028B8E0
:20F938000020EFF3108072B6704770470020EFF3108062B670477047012142468DF813909D
:20F95800FFF7BABB01F10C002C31FEF711BFFFF71BF8FFF7A9BEFEE7016881F308884068A4
:14F9780000474FF4806008470120704700BFFEE7FFF7A1BFF0
:20F98C0000002000C215000000001000C214000000000800EF12000000000400EF11000071
:20F9AC0000000000000000004F4144204E564D3143433236783252310102000302000103FE
:20F9CC0035F20A002BF90A00F1F80A00000100000FA128FFF000000002000000F8110000F6
:10F9EC00D8F90A0000030020E4F90A0034170020BB
:20FF5400014C0000B0177D511DEC108BD851BCA2ED3D9E19B733A52F33DA05404D13765069
:20FF74003D88DF5CD0E2F2583053C42AB92ABEEF665FECCF5616CC36EF2DC95E462B7C3B17
:0CFF940009C19956D9AF958163237BE722
:20FFA80000008001100080FFFDFF5800FFFFBBF3FFFFFFFFFFFFFFFFFFFFFFFFFFFFFFFF39
:20FFC800FFFFFFFFFFFFFFFFFFFFFFFFFFFFFFFFFFFFFF00FFFFFFFF00FFFFFF00C5C5FFAA
:18FFE800000000FF00E00A00FFFFFFFFFFFFFFFFFFFFFFFFFFFFFFFF28
:00000001FF
